:020000040800F2
:100000000030002059190008C1170008C317000864
:10001000C5170008C7170008C9170008000000002E
:10002000000000000000000000000000CB170008E6
:10003000CD17000800000000CF170008D1170008F6
:10004000A9190008A9190008A9190008A919000888
:10005000A9190008A9190008A9190008A919000878
:10006000A9190008A9190008A9190008A919000868
:10007000A9190008A9190008A9190008A919000858
:10008000A9190008A9190008A9190008A919000848
:10009000A9190008A9190008A9190008A919000838
:1000A000A9190008A9190008A9190008A919000828
:1000B000A9190008A919000800000000A9190008E2
:1000C000A91900080000000000000000A91900089C
:1000D00000000000A9190008A9190008A9190008C2
:1000E000A9190008A919000800000000000000007C
:1000F0000000000000000000000000000000000000
:1001000000000000000000000000000000000000EF
:100110000000000000000000E1170008A919000815
:1001200000000000000000000000000000000000CF
:1001300000000000000000000000000000000000BF
:10014000A9190008A919000800000000000000001B
:10015000000000000000000000000000000000009F
:10016000000000000000000000000000000000008F
:10017000000000000000000000000000000000007F
:0801800000000000A9190008AD
:1001880010B5054C237833B9044B13B10448AFF3C9
:1001980000800123237010BD0C0000200000000027
:1001A800F419000808B5034B1BB103490348AFF322
:1001B800008008BD0000000010000020F4190008AD
:1001C80038B50E4A0E4B054618784FF47A73B3FBD0
:1001D800F0F31068B0FBF3F000F080F8044658B96B
:1001E8000F2D09D8024629464FF0FF3000F042F89B
:1001F800044B20461D6038BD012038BD0800002092
:100208000000002004000020074A08B5136843F0E6
:1002180010031360032000F01BF80020FFF7D0FF45
:1002280001F084FA002008BD00200240034A044B74
:1002380011681B780B441360704700BF280000202A
:1002480000000020014B1868704700BF28000020FC
:10025800074AD36823F4E0631B041B0C43F0BF6315
:10026800000243F4003300F4E0600343D3607047B6
:1002780000ED00E0174B30B5DC68C4F30224C4F18C
:100288000703251D042B28BF0423062D4FF0010565
:1002980005FA03F303F1FF338CBF033C0024194034
:1002A800A14005FA04F4013C2240002842EA010278
:1002B8004FEA0212AFBF00F1604000F00F00064B9A
:1002C800D2B2A5BF00F56140D2B21A5480F800231B
:1002D80030BD00BF00ED00E014ED00E00138B0F1E2
:1002E800807F0AD2064B074A5860F02182F8231013
:1002F8000020072298601A6070470120704700BFED
:1003080010E000E000ED00E0044B1A6804280CBF80
:1003180042F0040222F004021A60704710E000E084
:10032800704708B5FFF7FCFF08BD00002DE9F04F46
:1003380085B00B68DFF86481564A01934FF00F09C6
:100348000023019CDC4002D105B0BDE8F08F0124F8
:1003580004FA03FA019C14EA0A0500F093804C6839
:1003680024F0100BBBF1020F11D1DF0800EB870757
:1003780003F0070E3E6A4FEA8E0E09FA0EFC26EAD3
:100388000C0C0E6906FA0EF646EA0C063E624FEAB7
:10039800430C0327066807FA0CF7FF4304F0030E23
:1003A8003E400EFA0CFE0BF1FF3B4EEA0606BBF18F
:1003B800010F066011D8866806EA070BCE6806FAB0
:1003C8000CFE4EEA0B068660466826EA0A0AC4F363
:1003D80000169E4046EA0A064660C66837408E68A0
:1003E80006FA0CF63743E600C7604BD5D8F8186014
:1003F80046F00106C8F81860D8F8186023F003071B
:1004080007F1804706F0010607F58037039603F0E9
:10041800030E039EBE684FEA8E0E09FA0EFCB0F179
:10042800904F26EA0C0C2FD01B4EB0422ED006F56A
:100438008066B0422CD006F58066B04214BF05260F
:10044800032606FA0EF646EA0C06BE601668EF4367
:1004580014F4803F0CBF3E402E431660566814F4D7
:10046800003F0CBF3E402E435660966814F4801F30
:100478000CBF3E402E439660D668A40254BF3E404F
:100488002E43D66001335CE70026DAE70126D8E779
:100498000226D6E70004014000040048001002408C
:1004A8000AB1816170478162704738B5044600B36C
:1004B80003684CF6CC421A6045F255521A604268FD
:1004C8005A6082689A60FFF7BDFE05462368D868BF
:1004D80040B9E268196991420ABF4AF6AA221A612C
:1004E8001A6038BDFFF7AEFE401B3028EED9032056
:1004F80038BD012038BD00002DE9F347054618B97D
:10050800012002B0BDE8F0870368DA0711D42B6830
:100518009B0700F185802B681C0700F1F6802B688B
:10052800580700F13F81EA69002A40F0D68100208F
:10053800E7E7BA4C636803F00C03042B07D0636841
:1005480003F00C03082B16D16368DF0313D54FF4AF
:10055800003393FAA3F2216893FAA3F3B3FA83F36F
:1005680003F01F03012202FA03F30B42CFD06B689A
:10057800002BCCD1C4E76A68B2F5803F25D1236847
:1005880043F480332360E36AA96823F00F030B4325
:10059800E36252B3FFF756FE4FF400368046012758
:1005A80096FAA6F3226896FAA6F3B3FA83F303F051
:1005B8001F0307FA03F31342A9D1FFF743FEA0EB89
:1005C80008006428ECD903209BE7236832B923F498
:1005D80080332360236823F48023D3E7B2F5A02F68
:1005E800F5D143F480232360C9E7FFF72BFE4FF4CE
:1005F80000368046012796FAA6F3226896FAA6F3F3
:10060800B3FA83F303F01F0307FA03F313423FF42B
:100618007EAFFFF717FEA0EB08006428EBD9D2E7FE
:100628007E4C636813F00C0F07D0636803F00C036B
:10063800082B22D16368DE031FD4022393FAA3F2A6
:10064800216893FAA3F3B3FA83F303F01F0301229B
:1006580002FA03F30B4203D02B6993427FF450AFA5
:100668002168F82393FAA3F3B3FA83F26B699340F2
:1006780021F0F802134323604DE72A6901260AB3E3
:1006880096FAA6F3B3FA83F303F1845303F58413BC
:100698009B0002271E60FFF7D5FD804697FAA7F357
:1006A800226897FAA7F3B3FA83F303F01F0306FA55
:1006B80003F31342D4D1FFF7C5FDA0EB08000228CD
:1006C800ECD980E796FAA6F3B3FA83F303F18453DF
:1006D80003F584139B0002271A60FFF7B3FD8046D9
:1006E80097FAA7F3226897FAA7F3B3FA83F303F00C
:1006F8001F0306FA03F313423FF40DAFFFF7A2FD01
:10070800A0EB08000228EBD95DE7AA69434E4449EB
:1007180001241AB394FAA4F3B3FA83F30B449B00AD
:1007280002271C60FFF78EFD804697FAA7F397FA19
:10073800A7F397FAA7F3726A97FAA7F3B3FA83F3C2
:1007480003F01F0304FA03F313427FF4E8AEFFF744
:1007580079FDA0EB08000228E7D934E794FAA4F35E
:10076800B3FA83F30B449B0002271A60FFF76AFD74
:10077800804697FAA7F397FAA7F397FAA7F3726A4E
:1007880097FAA7F3B3FA83F303F01F0304FA03F30A
:1007980013423FF4C4AEFFF755FDA0EB0800022852
:1007A800E7D910E71D4CE369D90034D4E36943F075
:1007B8008053E361E36903F080530193019B0126B1
:1007C800184F3B68DA052FD5EB68012B3DD1236A1A
:1007D80043F001032362FFF735FD02278246B9463D
:1007E8004FF0010897FAA7F397FAA7F3002B6CD0FC
:1007F800226A99FAA9F3B3FA83F303F01F0308FAFC
:1008080003F3134258D0002E3FF48DAEE36923F072
:100818008053E36187E60026D2E700BF001002405C
:1008280020819010007000403B6843F480733B6067
:10083800FFF708FD80463B68DB05C5D4FFF702FDDE
:10084800A0EB08006428F6D9BDE63BBB236A23F079
:1008580001032362236A23F004032362FFF7F2FCF7
:1008680002278246B9464FF0010897FAA7F397FA8C
:10087800A7F373B3226A99FAA9F3B3FA83F303F0DF
:100888001F0308FA03F31342BDD0FFF7DBFC41F264
:100898008833A0EB0A009842E7D994E6052B236A2F
:1008A80003D143F00403236291E723F00103236299
:1008B800236A23F004038DE7FFF7C4FC41F2883371
:1008C800A0EB0A0098428DD97DE697FAA7F3626AF1
:1008D8008FE797FAA7F3626ACDE7414C636803F0A4
:1008E8000C03082B3FF40CAE022A4FF0807352D150
:1008F80093FAA3F3B3FA83F303F1845303F5841350
:100908009B0000221A60FFF79DFC4FF0007780469D
:10091800012697FAA7F3226897FAA7F3B3FA83F3A5
:1009280003F01F0306FA03F313422DD162686B6AC2
:10093800296A22F474120B43134363604FF08073E7
:1009480093FAA3F3B3FA83F303F1845303F58413FF
:100958009B004FF000751E60FFF774FC01260746E8
:1009680095FAA5F3226895FAA5F3B3FA83F303F091
:100978001F0306FA03F313427FF4D9ADFFF762FCB5
:10098800C01B0228ECD91EE6FFF75CFCA0EB0800B0
:100998000228BED917E693FAA3F3B3FA83F303F157
:1009A800845303F584139B0000221A60FFF74AFC66
:1009B8004FF000750746012695FAA5F3226895FAC7
:1009C800A5F3B3FA83F303F01F0306FA03F3134204
:1009D8003FF4ADADFFF736FCC01B0228ECD9F2E5B9
:1009E8000010024010B5134C616801F00C03082B8D
:1009F8001ED14FF4701393FAA3F301F47012B3FAF3
:100A080083F322FA03F30C4AD05CE36A0F2292FACA
:100A1800A2F2B2FA82F203F00F03D340074AD25C83
:100A2800CB034ABF064B074BB3FBF2F3584310BD49
:100A3800034810BD001002400C1A00081C1A0008D8
:100A480000127A0000093D002DE9F0410D460446E8
:100A580010B90120BDE8F0814C4A136803F0070380
:100A68008B422ED32268910736D4D2073CD4474A0A
:100A7800136803F007039D4275D32268444D12F0B2
:100A8800040F7CD1130706D56B68226923F46053E1
:100A980043EAC2036B60FFF7A5FF6B68F02292FA86
:100AA800A2F2B2FA82F203F0F003D340394AD35CDF
:100AB800D840394B18600020FFF782FB0020BDE8C2
:100AC800F081136823F007030B431360136803F0E6
:100AD80007039942BDD1C5E72D49A0684B6823F0AB
:100AE800F00303434B60C0E76268294E012A27D10F
:100AF8004FF4003393FAA3F1316893FAA3F3B3FAEE
:100B080083F303F01F0302FA03F30B42A1D07368C7
:100B180023F003031A437260FFF794FB41F288380D
:100B280007467368626803F00C03B3EB820F9ED02C
:100B3800FFF788FBC01B4045F3D90320BDE8F081CF
:100B4800022A0CBF4FF00073022393FAA3F1306816
:100B580093FAA3F3B3FA83F303F01F03012101FA15
:100B680003F30342D2E7136823F007032B43136010
:100B7800136803F007039D427FF46BAF7DE76B6852
:100B8800E16823F4E0630B436B607BE700200240DD
:100B980000100240581A000808000020014B18688D
:100BA800704700BF08000020084B4FF4E0625B6804
:100BB80092FAA2F2B2FA82F203F4E063D340044A52
:100BC800D35C044A1068D840704700BF0010024048
:100BD800681A000808000020084B4FF460525B6850
:100BE80092FAA2F2B2FA82F203F46053D340044AB2
:100BF800D35C044A1068D840704700BF0010024018
:100C0800681A00080800002003682DE9F347054624
:100C1800D80320D5504CE369D90044D4E36943F0A4
:100C28008053E361E36903F080530193019B01263C
:100C38004A4F3B68DA0538D5236A13F4407348D124
:100C4800236A6A6823F44073134323621EB1E3697D
:100C580023F08053E3612868C10706D53E4AA96896
:100C6800136B23F003030B431363820606D53A4A3A
:100C7800E968136B23F010030B431363030606D5CF
:100C8800354A2969D36A23F4F8730B43D36210F405
:100C980080501BD0304A6969136B23F480730B436F
:100CA8001363002012E00026C2E73B6843F4807318
:100CB8003B60FFF7C7FA80463B68DB05BCD4FFF70B
:100CC800C1FAA0EB08006428F6D9032002B0BDE8F9
:100CD800F0876A6802F440729342B1D0216A4FF4F7
:100CE800803321F4407093FAA3F2DFF874E0B2FA8B
:100CF80082F2724492000127176093FAA3F3B3FAC1
:100D080083F373449B0000221A602062C80797D5BA
:100D1800FFF798FA4FF002088246C14698FAA8F3FE
:100D280098FAA8F39BB1226A99FAA9F3B3FA83F364
:100D380003F01F0307FA03F3134281D1FFF782FA86
:100D480041F28833A0EB0A009842E7D9BDE798FA48
:100D5800A8F3626AE8E700BF001002400070004094
:100D68000081901038B5044600285BD0836C1BB90D
:100D780080F8443000F0FEFB0223A3642368216955
:100D88001A6822F001021A60626822F070621A6121
:100D98005A6922F400425A615A6922F000425A61A3
:100DA800226B5A619A6822F400429A60E268002A2B
:100DB80032D001292DD142F400429A605A68A169C3
:100DC800656AA06A42F0007242F400425A606269A1
:100DD8000A43E16942EA0122DA60226AE16A2A43A7
:100DE8000243A5680A432A43B0F5000F1A6006D1EA
:100DF80031F4001202BF1A6842F480321A601A688D
:100E080042F001021A6000200123E0642364A36415
:100E180038BD42F404429A60022904BF4FF40062CC
:100E28005A60CBE7012038BD70B5044600284AD087
:100E38000023836290F85D3003F0FF021BB980F84D
:100E48005C2000F04FFC0223216884F85D300B68B9
:100E5800E26823F04003B2F5E06F0B604FF0000347
:100E68002ED91846B2F5706F18BFA362236B2BB941
:100E7800B2F5E06F8CBF022301232363A668636881
:100E8800A56933432669334366693343E6693343C7
:100E9800266A3343A66A334305F4007633430B606E
:100EA800636A1A43636B2D0C1A4305F004052A4341
:100EB8000243012300204A60206684F85D3070BD3B
:100EC8004FF48050D0E7012070BD704770477047DD
:100ED8007047704703681A69910710B504460FD523
:100EE800DA6892070CD56FF002021A619B69012239
:100EF8009907027700F08580FFF7E9FF0023237741
:100F080023681A69520710D5DA6850070DD56FF0B3
:100F180004021A619B69022213F4407F227720465B
:100F280075D0FFF7D4FF0023237723681A691107C8
:100F38000FD5DA6812070CD56FF008021A61DB6961
:100F480004229B072277204667D0FFF7C0FF0023C3
:100F5800237723681A69D00610D5DA68D1060DD52B
:100F68006FF010021A61DB69082213F4407F2277C0
:100F7800204658D0FFF7ABFF0023237723681A6970
:100F8800D20708D5DA68D00705D56FF001021A61D3
:100F98002046FFF79AFF23681A69110608D5DA6810
:100FA800120605D56FF080021A61204600F0C9F8D4
:100FB80023681A69D00508D5DA68110605D56FF4D3
:100FC80080721A61204600F0BDF823681A6952063B
:100FD80008D5DA68500605D56FF040021A61204638
:100FE800FFF777FF23681A69910622D5DA68920617
:100FF8001FD56FF0200220461A61BDE8104000F0AE
:101008009FB8FFF763FF2046FFF762FF76E7FFF719
:101018005DFF2046FFF75CFF85E7FFF757FF204697
:10102800FFF756FF93E7FFF751FF2046FFF750FF02
:10103800A2E710BD214A0368904210B505D0B0F16F
:10104800804F02D01E4CA0420CD14C6823F0700394
:10105800904243EA040310D0B0F1804F0DD0184AF3
:1010680090420AD0174A904207D002F58062904217
:1010780003D002F58062904203D1CA6823F440731A
:1010880013434A6923F08003134303608B68C362E8
:101098000B688362094B98420BD003F5A053984222
:1010A80007D003F58063984203D003F58063984224
:1010B80001D10B6903630123436110BD002C01407A
:1010C800000400400040014010B50446A0B190F86B
:1010D8003D3003F0FF021BB980F83C2000F0DEFB36
:1010E800022384F83D302068211DFFF7A3FF012368
:1010F80084F83D30002010BD012010BD90F83C3030
:10110800012B30B518D002680C4D53689468AA4278
:1011180002BF4D6823F470032B430D68896823F0E0
:1011280070032B4324F08004536021430023916013
:1011380080F83C30184630BD022030BD002C0140FC
:10114800704770477047000038B504460568216944
:10115800A368C26928680B4361690B434949134373
:1011680001400B432B606B68E168206A23F440530D
:101178000B436B60A968A36921F4306103430B43F7
:10118800AB60414B9D4212D103F558433F491B6B5D
:1011980003F00303B2F5004FCB5C3BD1082B36D8E4
:1011A800DFE803F00F2124352D3535353000384B75
:1011B8009D4203D003F580639D425ED1B2F5004F96
:1011C80031D1FFF7F1FC61684A0802EB4003B3FB39
:1011D800F1F39BB2002023F00F022168C3F342030E
:1011E8001343CB6038BDFFF7F7FCECE760684308B2
:1011F80003F5740303F51053B3FBF0F3E9E7FFF7C6
:10120800F1FBE0E76068430803F58033F4E7012069
:101218000023E0E7082B33D8DFE803F005101B3282
:10122800273232322A00FFF7BFFC636800EB530015
:10123800B0FBF3F080B2E860002038BDFFF7CCFCCB
:10124800636800EB5300B0FBF3F00F4B80B2D8603B
:10125800F2E76268530803F5F40303F59053B3FB10
:10126800F2F3094A9BB2D360E6E7FFF7BBFBE7E777
:101278006268530803F50043F1E7B2F5004FC6D0A2
:10128800012038BDF369FFEF003801402C1A00082F
:1012980000440040436ADA0710B506D50168846A3D
:1012A8004A6822F4003222434A609C0706D5016846
:1012B800C46A4A6822F4803222434A60590706D534
:1012C8000168046B4A6822F4802222434A601A07A4
:1012D80006D50168446B4A6822F4004222434A60FA
:1012E800DC0606D50168846B8A6822F480522243A2
:1012F8008A60990606D50168C46B8A6822F4005290
:1013080022438A605A060FD50168046C4A6822F4A1
:1013180080122243B4F5801F4A6005D14A68446CA4
:1013280022F4C00222434A601B0606D50268816C7B
:10133800536823F400230B43536010BD2DE9F0419B
:10134800069D04460F46164698462168CA6937EA3C
:1013580002030CBF01220022B24202D00020BDE8E5
:10136800F0816B1CF2D09DB923681A6822F4D07200
:101378001A609A6822F001029A60202384F8693082
:1013880084F86A30002384F868300320BDE8F081CF
:10139800FEF758FFA0EB08008542D6D2E4E773B504
:1013A80004460026C666FEF74DFF23681B681A0729
:1013B800054617D423681B685B070AD56FF07E4380
:1013C800009300222B464FF480012046FFF7B6FF1A
:1013D800A0B92023002084F8693084F8680084F8D4
:1013E8006A300CE06FF07E430093324603464FF4B8
:1013F80000112046FFF7A2FF0028DBD0032002B02F
:1014080070BD10B5044660B390F8693003F0FF0270
:101418001BB980F8682000F077FA2268242384F842
:101428006930136823F0010313602046FFF78CFE30
:10143800012816D0636A13B12046FFF72BFF2368F3
:101448005A6822F490425A609A6822F02A029A60F6
:101458001A6842F0010220461A60BDE81040FFF702
:101468009EBF012010BD00002B4B70B55A692B4D53
:1014780042F400225A615A6988B002F400220092AC
:10148800009A5A6942F400325A615A6902F40032E9
:101498000192019A5A6942F480225A615B6903F405
:1014A80080230293002240F612714FF09040029B75
:1014B800FEF7F6FF002228464FF63671FEF7F0FFDA
:1014C8000024012640F6127303A94FF090400393BD
:1014D800049605940694FEF729FF114B049303A97B
:1014E800284603960594FEF721FF4FF6367303A9A5
:1014F80028460393049605940694FEF717FF4FF4C5
:10150800805303A94FF09040039304940594FEF789
:101518000DFF08B070BD00BF001002400004004875
:101528000000111008B50F480F4B1049022280E83F
:101538000A0000238360C260436101228361C361A2
:10154800036243628362C36248F261030261036318
:10155800FFF708FC28B147210548BDE8084000F01E
:1015680095B808BD2C0000200E090020005400404A
:10157800301A00087FB502680F4B9A4218D1C02371
:101588000193122302930123039303230493042357
:101598000DEB030109480593FEF7C8FE084BDA690D
:1015A80042F40012DA61DB6903F400130093009B34
:1015B80007B05DF804FB00BF005400400004004879
:1015C8000010024009480A4A08B5002380E80C00C8
:1015D80040F6FF73C3608360FEF767FF28B13B21C5
:1015E8000448BDE8084000F051B808BD7C00002060
:1015F800003000403D1A000810B596B00A230C933D
:1016080001231093102212930CA800231192139314
:10161800FEF772FF014600B1FEE70F230290039028
:101628000490059001A80193FFF70EFA00B1FEE7B8
:101638002023099006A80693FFF7E6FA044600B1AE
:10164800FEE7FFF7ABFA4FF47A73B0FBF3F0FEF75F
:1016580045FE0420FEF758FE224621464FF0FF3093
:10166800FEF708FE16B010BD08B5FEF7CDFDFFF772
:10167800C3FFFFF7F9FEFFF755FF00F009F800F088
:10168800E5F800F01FF9FFF79DFFFEE7FEE7000011
:101698001148124908B54FF4C0624FF4827380E8CC
:1016A8000A00C26000234FF4007283600361436143
:1016B8008261C36103624362836207220363082372
:1016C800C2624363FFF7B0FB28B147210448BDE875
:1016D8000840FFF7DBBF08BD8C0000200030014048
:1016E8004B1A00087FB502680F4B9A4219D103F5CF
:1016F800604301A99A6942F480529A619B6903F494
:1017080080530093009BE02301930223029300235C
:101718000393032304934FF0904005230593FEF7AA
:1017280005FE07B05DF804FB00300140214B07B50A
:101738009A6942F001029A619A6902F001020092E4
:10174800009ADA6942F08052DA61DB6903F080536B
:1017580001930320019BFEF77BFD002211466FF0E9
:101768000B00FEF787FD002211466FF00A00FEF716
:1017780081FD002211466FF00900FEF77BFD002273
:1017880011466FF00400FEF775FD002211466FF058
:101798000300FEF76FFD002211466FF00100FEF70F
:1017A80069FD002211464FF0FF30FEF763FD03B0DC
:1017B8005DF804FB001002407047FEE7FEE7FEE715
:1017C800FEE770477047704708B5FEF72FFDBDE884
:1017D8000840FEF7A6BD00000148FFF77BBB00BF2D
:1017E800F00000201549D1F8883043F47003C1F89F
:1017F8008830134B1A6842F001021A605868114A7F
:1018080002405A601A6822F0847222F480321A6008
:101818001A6822F480221A605A6822F4FE025A607A
:10182800DA6A22F00F02DA62186B074A02401A637A
:1018380000229A604FF000638B60704700ED00E073
:10184800001002400CC07FF8CCFC00FF1FB5104808
:1018580010490023072242F2107E80E80E408023C0
:101868008361FFF731FC18B13D210B48FFF70EFFEC
:101878002023019301A9002305480393FFF73EFCA9
:1018880018B144210448FFF701FF05B05DF804FBD7
:10189800F000002000100040701A00080268084B91
:1018A8009A4282B00AD103F50033DA6942F0100295
:1018B800DA61DB6903F010030193019B02B0704702
:1018C8000010004008B50D480D4B4FF4165E80E837
:1018D80008400C2200238360C36003614261836176
:1018E800C36103624362FFF78CFD28B144210548B8
:1018F800BDE80840FFF7CABE08BD00BF30010020A0
:10190800004400407D1A00087FB502680F4B9A42D8
:1019180019D103F5E63301A9DA6942F40032DA6134
:10192800DB6903F400330093009B0C23019302232B
:10193800029300230393032304934FF0904007235B
:101948000593FEF7F3FC07B05DF804FB0044004084
:10195800DFF834D0002103E00C4B5B5843500431CE
:101968000B480C4B42189A42F6D30B4A02E000236C
:1019780042F8043B094B9A42F9D3FFF733FF00F0D2
:1019880011F8FFF771FEFEE700300020941A0008F6
:10199800000000200C0000200C000020A001002006
:1019A800FEE7000070B50D4E0D4CA41BA4100025D9
:1019B800A54209D10B4E0C4C00F018F8A41BA4103A
:1019C8000025A54205D170BD56F825309847013548
:1019D800EEE756F8253098470135F2E78C1A0008EB
:1019E8008C1A00088C1A0008901A0008F8B500BF75
:1019F800F8BC08BC9E467047F8B500BFF8BC08BCE8
:041A08009E4670473F
:101A0C0002030405060708090A0B0C0D0E0F101033
:101A1C000102030405060708090A0B0C0D0E0F1032
:101A2C00000408022E2E5C5372635C6932632E63D1
:101A3C00002E2E5C5372635C697764672E63002EF4
:101A4C002E5C5372635C7370692E6300000000009F
:101A5C000000000001020304060708090000000052
:101A6C00010203042E2E5C5372635C74696D2E6349
:101A7C00002E2E5C5372635C75736172742E63005E
:041A8C00AD010008A0
:041A900089010008C0
:0C1A9400010000001000000000127A00A9
:04000005080019597D
:00000001FF
